:1000000000308A00E02D00000A108A100A118207D1
:1000100028340C34013406340A108A100A1182077D
:10002000E8340334883413341034273430347534CE
:100030005034C334FF34FF340A108A100A11820787
:100040000C3443346F3475346E34743469346E3424
:1000500067340A34B934B234BF34B834C134AD343F
:10006000B33400340A108A100A1182070C34423467
:10007000453452343D3425346C34663425342534CB
:1000800020340A3445343D34253435346C347534E9
:10009000203443343D34253435346C3475340034E5
:1000A0000A108A100A1182070C3442344534523443
:1000B0005434203450344E343934203444342534CC
:1000C00075342D344334253475340A3454343A3479
:1000D00025344C347534203453343A342534753453
:1000E00000340A108A100A1182070C347334613408
:1000F00076346534203473346534743469346E3442
:10010000673473340A34323434342D343134323475
:100110002D343134353400344B30840083130008DF
:1001200003199F280630F800F701F70B9528F80B04
:1001300094287B30F700F70B9B28800B9228003423
:10014000520EF039F7000F300605770486000000E4
:1001500006140330F700F70BAB28061000348610A6
:10016000F030660006150000061400000608060EB2
:100170000F39D200061000000614BE28BF28000068
:100180000608060E0F39D100061000306600520E28
:10019000F700F030F70577085104F8007808D1002F
:1001A000D11BB0284F1C86104F1886140000061172
:1001B00000000610500ED1000F30D1055108D200BA
:1001C000A02050080F39D100D200A0200034003008
:1001D00066008610061106100F30CB008C2001300F
:1001E000AC002C08033C031CFD280330D200A020E7
:1001F0000530CB008C20AC0AF1280230D200A020C0
:10020000AC012C08033C031C0E292C080420AD0073
:10021000CF012D08D000AF20AC0A01298A11ED2DA5
:100220004A080C3A03191B29063A03192329023AF2
:10023000031939293E29CF010130D000AF20023007
:10024000CB008C2044290130CB000230CC004C0B79
:100250002A292D294030CD002E29CD0101304B0215
:10026000CD074D088038CE00CF014E08D000AF201A
:100270004429CF011030D000AF2044290130CF00F5
:100280004A08D000AF20442900343208F801310276
:1002900003184D293108F7005929F7010830B30038
:1002A000B10DF70D320877020318F700F80DB30B04
:1002B0005029003478082F08B1006430B20045217D
:1002C0007708AF0078083030031D6D29B01C742901
:1002D000B0197429301A20307029B011301230143E
:1002E000F8077808CA0010212F08B1000A30B200C0
:1002F00045217708AF0078083030031D8529B019F3
:100300008929301C8929301A2030F8077808CA005A
:1003100010213030AF072F08CA0010210034C60169
:100320000408C5004610831B46143F0EF038C10078
:10033000C107E23EC200323EC4003F080F39C20787
:10034000C207C407E93EC300C307C3073E0E0F3907
:10035000C307C407C30DC40DC409C40D3E080F393B
:10036000C407C10D0730C0000A30C407C303031C13
:10037000B529C307C203031CB929C207C103031C63
:10038000BD29C107C003031CC12940308400831369
:100390000730450545138407443004020319451707
:1003A0000008F700031DDC29451BDC29451AEE294E
:1003B000C519DC292030DF29C51545123030F70773
:1003C000BF010408BE003F10831B3F147708CA001A
:1003D00010213E08840083133F188317840A451FA9
:1003E000CC290034B40134081C20B40AF700CA0038
:1003F000102109303402031DF3290330B5002E30DB
:10040000CA001021B50BFF290930B60036081C20A0
:10041000B60AF700CA00102111303602031D062A61
:100420000330B7002E30CA001021B70B122AA101E9
:10043000A401A301A801A70185110230B400FA307C
:10044000CB008C20B40B1F2AA10122082102031823
:10045000632A0030051E0130B4000030201801303E
:100460003406031D292AF701851AF7172A0877068B
:10047000803903193D2A00303E2A0130B500003092
:10048000A01801303506031D482AA1018030AA06B4
:100490000030051A0130B400003020180130340655
:1004A000031D482A0030A91B0130B4000030AA19EE
:1004B00001303406031D5E2A03105F2A0314AA0CC0
:1004C000A90CA10A252A8515A801A701280826023A
:1004D000031CAC2A031D702A250827020318AC2A26
:1004E0000030051E0130B400003020180130340601
:1004F000031D702AF701851AF7172A087706803935
:100500000319842A0030852A0130B5000030A01874
:1005100001303506031D8F2AA30A0319A40A0030EF
:10052000051A0130B4000030201801303406031DD4
:100530008F2A0030A91B0130B4000030AA19013005
:100540003406031DA52A0310A62A0314AA0CA90C1D
:10055000A70A0319A80A662A00348E30F700350866
:10056000F8003408F900FA01F808031DC12A7908D7
:10057000F800F9010830F702F808031DC12AF70155
:10058000C92A0310F81BC82AF90DF80DF703C12A70
:10059000F8130034340803198F2BC00038080319EE
:1005A0008F2BC002031CD92A7F30C00703188F2B62
:1005B000DF2A8130C002031C8F2B03198F2B4008C8
:1005C000F700F801F901FA01BF013508BE00BE17B6
:1005D0003608BD003708BC001930C0003B08BC021B
:1005E0000318022B0130BD020318022BBE020318B0
:1005F000022BBF020318022BBF0ABE0ABD0A3B082A
:10060000BC07342B3A08BD0203181D2B0130BE0273
:1006100003181D2BBF0203181D2BBF0ABE0A3A0880
:10062000BD073B08BC07031C342BBD0A031D342B3C
:10063000BE0A031D342BBF0A342B39088038BE0292
:100640000318332B0130BF020318332BBF0A3908BC
:100650008038BE073A08BD07031C112BBE0A031DD4
:10066000112BBF0A112B7A14C00B372B422B03100E
:10067000BC0DBD0DBE0DBF0D0310FA0DF90DF80D2B
:10068000C10DEE2A411C4A2B0310F80CF90CFA0C90
:10069000C10C4D2BF70303198F2BC11B762B0310B5
:1006A000BC0DBD0DBE0DBF0D3B08BC020318622B77
:1006B0000130BD020318622BBE020318622BBF0279
:1006C000031C852B3A08BD0203186D2B0130BE02B6
:1006D00003186D2BBF02031C852B39088038BE021E
:1006E0000318762B0130BF02031C852BFA0A031D69
:1006F000852BF90A031D852BF80A031D852BF70AA4
:1007000003198F2BF80CF90CFA0C3508C0003908C6
:10071000C006C01F8D2BF817932BF813932BF701EE
:10072000F801F901FA018A11622D4A080319052C12
:10073000D2004E080319052CD2070318A62B7F30D0
:10074000D202031C052C0319052CAA2B8130D207D9
:100750000318052C5208F700F801F901FA014B08BB
:10076000D600D6174C08D5004D08D4001830D2005A
:10077000D301541CD32B5108FA07031CC52BF90ACB
:10078000031DC52BF80A0319D3175008F907031CDA
:10079000CC2BF80A0319D3174F08CC00CC174C0800
:1007A000F8070318D317D30DF80CF90CFA0CD60C74
:1007B000D50CD40C0310D20BB82B0130F70703185B
:1007C000052CF81BEA2BD60DFA0DF90DF80DF703E1
:1007D0000319052CD61FFB2BFA0A031DFB2BF90A64
:1007E000031DFB2BF80A031DFB2BF80CF90CFA0C6C
:1007F000F70A0319052C4B08D3004F08D306D31F63
:10080000032CF817092CF813092CF701F801F9014A
:10081000FA0100344A08B63CCA00FA014B08CE007F
:10082000CB170310CB0CCC0CCD0CFA0CF90CF80C3C
:10083000F70CCA0B112CCE1F282CF709F809F9095F
:10084000FA09F70A0319F80A0319F90A0319FA0A47
:100850008A11942CF701F801F901FA01D201D301B0
:10086000D401D501510850044F044E040319682CDB
:100870002030D6000310CA0DCB0DCC0DCD0DD20DFE
:10088000D30DD40DD50D51085502031D512C500820
:100890005402031D512C4F085302031D512C4E08C6
:1008A0005202031C622C4E08D2024F08031C4F0F49
:1008B000D3025008031C500FD4025108031C510FDF
:1008C000D5020314F70DF80DF90DFA0DD60B3A2CDD
:1008D00052308400831300340408C2004108C4006D
:1008E00003198B2C4008CD003F08CC003E08CB00FC
:1008F0003D08CA00D101D0012030CF008230CE00A7
:1009000095237A08C0007908BF007808BE007708F0
:10091000BD00C40B722C4008CD003F08CC003E083F
:10092000CB003D08CA000A2C7A08C0007908BF0035
:100930007808BE007708BD00C01FAB2CC203C216EA
:10094000BD09BE09BF09C009BD0A0319BE0A0319C2
:10095000BF0A0319C00A3B30C9009A30C800CA3028
:10096000C700C6010A30C40041080319C20A400882
:10097000CD003F08CC003E08CB003D08CA00490826
:10098000D1004808D0004708CF004608CE002A24EE
:100990000008BD00840A0008BE00840A0008BF00E9
:1009A000840A0008C000FD308407F708031DEB2C03
:1009B000410A44020319EB2C42080319ED2C0F39AC
:1009C00044020319E52C03181D2DC21B1D2D421BCB
:1009D000ED2C2030192D2030C205C21EFB2CC21276
:1009E0004108031DC2037708C2002D30CA00102140
:1009F0004208F700C20141084402031D092D77088F
:100A0000C2002E30CA0010214208F7002030C20573
:100A100000303030C21E192DC2124108031DC2031E
:100A20007708C2002D30CA0010214208F700C20129
:100A30003030F7077708CA0010214908CD00480870
:100A4000CC004708CB004608CA00D101D001CF0135
:100A50000A30CE002A247A08C9007908C80078082C
:100A6000C7007708C600C40BB72C8A11982D280838
:100A7000B5002708B400AD227A08B3007908B200A7
:100A80007808B1007708B0002408B5002308B40046
:100A9000AD227A08AF007908AE007808AD0077087B
:100AA000AC002F08B7002E08B6002D08B5002C08A2
:100AB000B4003308BB003208BA003108B90030086E
:100AC000B800CA2A7708B4007808B5007908B600DB
:100AD0007A08B700CD007908CC007808CB007708F9
:100AE000CA00D101D0014830CF008530CE00952317
:100AF0007708B8007808B9007908BA007A08BB000E
:100B0000BC013C083220BC0AF700CA0010210530A5
:100B10003C02031D812D893084003B08C0003A0847
:100B2000BF003908BE003808BD000230C1006C2C7F
:100B30002530CA0010210A30BD003D083220BD0A10
:100B4000F700CA0010210E303D02031D9D2D00301C
:100B500084002408BF002308BE008F212030CA0073
:100B600010214330CA0010213D30CA00102100304E
:100B700084002808BF002708BE008F210518C22D59
:100B8000851CBE2D3230CB008C208518F2218A11B5
:100B9000222FAB0A2B08063C0319AB0103102B0DC7
:100BA000AC002C0A0C20FA002C080C20A5007A08B6
:100BB000A6003230CB008C200518DC2D8A11222FA4
:100BC000840183131F30830507309F00FF30A90085
:100BD000AA003230CB008C20E72833306500831622
:100BE0009B019C131C141A08F8001A18FB2D831281
:100BF0002010FD2D831683122014013083169B00D4
:100C00009C131C141A08F8001A180A2E8312A0103C
:100C10000C2E83168312A014023083169B009C13A3
:100C20001C141A088312AB0003102B0DAC002C0A05
:100C30000C20FA002C080C20A5007A08A60003302E
:100C400083169B009C131C141A088312A2008511A2
:100C5000851C2C2E0230A006051C302E0130A0066B
:100C60000518302E8518302E3230CB008C20003005
:100C7000A0180130AC00003020180130AD00AE01EA
:100C80002E085020AE0AF700CA0010210B302E02A9
:100C9000031D402E2C08AF001B30B0005A212D3010
:100CA000CA0010214330CA0010212D08AF001B30AC
:100CB000B0005A210A30CA0010215430CA00102155
:100CC0003A30CA001021103084002608BF002508E1
:100CD000BE008F212030CA0010215330CA001021DD
:100CE0003A30CA0010212208AF001B30B0005A2150
:100CF00005187C2E851C782E3230CB008C200030DD
:100D000005180130AC00003085180130F7000310E1
:100D1000F70D77082C07013A0319952E033A0319AA
:100D2000972E013A0319982E212FF221372DC92D24
:100D3000AC012C087120AC0AF700CA0010210D305C
:100D40002C02031D992E0330AD002E30CA00102155
:100D5000AD0BA52E0D30AE002E087120AE0AF700A7
:100D6000CA00102116302E02031DAC2E00302018B0
:100D70000130AC0083169B0183122C0883169A0065
:100D80001C1583120B08F7008B13831655309D003A
:100D9000AA309D009C149C18CB2E1C11770883123E
:100DA0008B040030A0180130AC00013083169B008A
:100DB00083122C0883169A001C1583120B08F70067
:100DC0008B13831655309D00AA309D009C149C18EF
:100DD000E72E1C11770883128B04023083169B00C8
:100DE00083122B0883169A001C1583120B08F70038
:100DF0008B13831655309D00AA309D009C149C18BF
:100E0000FF2E1C11770883128B04033083169B007E
:100E10008312220883169A001C1583120B08F70010
:100E20008B13831655309D00AA309D009C149C188E
:100E3000172F1C11770883128B046430CB008C2091
:080E4000222F222F302E630047
:084200000000000002000A00AA
:02400E00423F2F
:00000001FF
;PIC16F648A
